:100000000C9434000C9451000C9451000C94510049
:100010000C9451000C9451000C9451000C9451001C
:100020000C9451000C9451000C9451000C9453000A
:100030000C9451000C9451000C9451000C945100FC
:100040000C9451000C9451000C9451000C945100EC
:100050000C9451000C94B3000C9451000C9451007A
:100060000C9451000C94510011241FBECFEFD8E026
:10007000DEBFCDBF11E0A0E0B1E0ECEEF3E002C0E6
:1000800005900D92A43AB107D9F722E0A4EAB1E0B5
:1000900001C01D92A73BB207E1F70E949E010C949C
:1000A000F4010C9400008F938FB78F93EF93FF931D
:1000B000EAE7F0E0808180648083FF91EF918F9187
:1000C0008FBF8F9118958091A501811104C082E0A6
:1000D00091E00C94140108958091A501882321F0EA
:1000E0008BE091E00C94140108959C018091A8018B
:1000F0009091A9018217930728F483E191E00E946F
:10010000140126C08091AF029091B002821793072C
:1001100018F484E291E0F3CF8091AA019091AB01B1
:100120008217930730F48FE391E00E9414010C943E
:1001300063008091A6019091A7018217930750F464
:100140008FE591E00E9414018091A4018111EFCF0D
:100150000C946C008AE891E0D2CF8091AC01909130
:10016000AD010C9475001F920F920FB60F921124DF
:100170002F933F934F935F936F937F938F939F93AF
:10018000AF93BF93EF93FF938091780090917900A4
:100190009093AD018093AC010E94AD00FF91EF916F
:1001A000BF91AF919F918F917F916F915F914F918F
:1001B0003F912F910F900FBE0F901F90189589EAD5
:1001C00093E09093A9018093A8018AEA92E090932A
:1001D000B0028093AF028AEA91E09093AB018093E2
:1001E000AA018AEA90E09093A7018093A60108955E
:1001F000E1ECF0E08081806880837894089510922B
:10020000C00088E18093C10086E08093C20087E649
:1002100090E09093C5008093C4008FED9BEA019716
:10022000F1F700C000000895CF93DF93EC018991AE
:10023000811103C0DF91CF9108959091C00095FF87
:10024000FCCF6091B3027091B402082E000C990BA0
:100250000E94C4018093C600EACF8091C00087FF4E
:10026000FCCF8091C6000895E8E6F0E080818260CE
:100270008083ECE6F0E08081816080830895ECE784
:10028000F0E08081806480838081807F8083EAE7E2
:10029000F0E08081866080838081806880838081B7
:1002A00088608083089580917A00806480937A00CA
:1002B00080917A0084FDFCCF809178009091790044
:1002C000089584B1826284B980E89EE390938700A8
:1002D00080938600E0E8F0E08081806A80838081FE
:1002E00082608083E1E8F0E08081886180838081A2
:1002F000816080837894EFE6F0E080818260808383
:100300000895382F292F809186009091870064E608
:1003100070E00E94B001832F922F8536910514F072
:1003200084E690E0689F9001699F300D789F300DC2
:100330001124309389002093880008950E94DF00E3
:100340000E9434010E943F010E94F8000E94FF00B9
:100350000E9461018091000190E00E948101FFCF25
:10036000AA1BBB1B51E107C0AA1FBB1FA617B707DB
:1003700010F0A61BB70B881F991F5A95A9F78095F7
:100380009095BC01CD0108950F931F93CF93DF93F8
:10039000182F092FEB018B8181FD09C01FEF0FEF93
:1003A000812F902FDF91CF911F910F91089582FFA0
:1003B00014C02E813F818C819D81281739073CF420
:1003C000E881F981CF0101969983888310838E811A
:1003D0009F8101969F838E83E3CFE885F985812FE6
:0C03E0000995892BA1F3DACFF894FFCF28
:1003EC0014005354415254200A0D0053544F5020C2
:1003FC000A0D006E6F7420636F6E6E6563746564B6
:10040C00200A0D00436F6E6E65637465642C206E5C
:10041C006F74206368617267696E67200A0D004310
:10042C006F6E6E65637465642C20636861726769B6
:10043C006E67207265717565737465640A0D00438F
:10044C006F6E6E65637465642C2063686172676996
:10045C006E6720776974682076656E74207265719A
:10046C00756573746564200A0D00536F6D6574684F
:10047C00696E67277320676F6E652077726F6E6782
:04048C000A0D000055
:00000001FF
