:100000000C9434000C9451000C9451000C94510049
:100010000C9451000C9451000C9451000C9451001C
:100020000C9451000C9451000C9451000C9451000C
:100030000C9451000C9451000C9451000C945100FC
:100040000C9451000C9451000C9451000C945100EC
:100050000C9451000C9451000C9451000C945100DC
:100060000C9451000C94510011241FBECFEFD8E026
:10007000DEBFCDBF11E0A0E0B1E0E4E9F1E002C0F5
:1000800005900D92A630B107D9F721E0A6E0B1E0C6
:1000900001C01D92AC30B207E1F70E948F000C94B2
:1000A000C8000C940000E1ECF0E08081806880835F
:1000B000789408951092C00088E18093C10086E092
:1000C0008093C20087E690E09093C5008093C400BF
:1000D0008FED9BEA0197F1F700C000000895CF93E0
:1000E000DF93EC018991811103C0DF91CF910895D5
:1000F0009091C00095FFFCCF6091080170910901BB
:10010000082E000C990B0E9498008093C600EACF3D
:100110008091C00087FFFCCF8091C60008950E94A7
:1001200053000E945A0080E091E00E946F00FBCFD4
:100130000F931F93CF93DF93182F092FEB018B8120
:1001400081FD09C01FEF0FEF812F902FDF91CF911D
:100150001F910F91089582FF14C02E813F818C81E1
:100160009D81281739073CF4E881F981CF01019678
:100170009983888310838E819F8101969F838E83CC
:10018000E3CFE885F985812F0995892BA1F3DACF93
:04019000F894FFCF11
:06019400746573740000A5
:00000001FF
