:100000000C9434000C9451000C9451000C94510049
:100010000C9451000C9451000C9451000C9451001C
:100020000C9451000C9451000C9451000C9453000A
:100030000C9451000C9451000C9451000C945100FC
:100040000C9451000C9451000C9451000C945100EC
:100050000C9451000C94BC000C9451000C94510071
:100060000C9451000C94510011241FBECFEFD8E026
:10007000DEBFCDBF11E0A0E0B1E0E8E6F4E002C0F1
:1000800005900D92A23AB107D9F722E0A2EAB1E0B9
:1000900001C01D92A93BB207E1F70E94A7010C9491
:1000A00032020C9400008F938FB78F93EF93FF93DE
:1000B000EAE7F0E0808180648083FF91EF918F9187
:1000C0008FBF8F9118958091A301811104C081E0A9
:1000D00091E00C941D0108958091A301882321F0E3
:1000E0008AE091E00C941D0108959C018091A60185
:1000F0009091A7018217930728F482E191E00E9472
:100100001D0126C08091B1029091B202821793071F
:1001100018F483E291E0F3CF8091A8019091A901B6
:100120008217930730F48EE391E00E941D010C9436
:1001300063008091A4019091A5018217930750F468
:100140008EE591E00E941D018091A2018111EFCF07
:100150000C946C0089E891E0D2CF4AE06EEA71E03D
:100160008091AC019091AD010E94CD018091AC01D4
:100170009091AD010C9475001F920F920FB60F92E3
:1001800011242F933F934F935F936F937F938F939C
:100190009F93AF93BF93EF93FF93809178009091DB
:1001A00079009093AD018093AC010E94AD00FF9166
:1001B000EF91BF91AF919F918F917F916F915F91DF
:1001C0004F913F912F910F900FBE0F901F90189558
:1001D00089EA93E09093A7018093A6018AEA92E0CE
:1001E0009093B2028093B1028AEA91E09093A901C0
:1001F0008093A8018AEA90E09093A5018093A401DE
:100200000895E1ECF0E0808180688083789408951F
:100210001092C00088E18093C10086E08093C20004
:1002200087E690E09093C5008093C4008FED9BEA31
:100230000197F1F700C000000895CF93DF93EC0120
:100240008991811103C0DF91CF9108959091C000F1
:1002500095FFFCCF6091B5027091B602082E000C9C
:10026000990B0E94F2018093C600EACF8091C000F2
:1002700087FFFCCF8091C6000895E8E6F0E080811A
:1002800082608083ECE6F0E0808181608083089565
:10029000ECE7F0E08081806480838081807F8083D0
:1002A000EAE7F0E0808186608083808180688083D7
:1002B000808188608083089580917A008064809333
:1002C0007A0080917A0084FDFCCF80917800909133
:1002D0007900089584B1826284B980E89EE39093A6
:1002E000870080938600E0E8F0E08081806A808368
:1002F000808182608083E1E8F0E080818861808392
:100300008081816080837894EFE6F0E08081826074
:1003100080830895382F292F80918600909187003F
:1003200064E670E00E94B901832F922F8536910513
:1003300014F084E690E0689F9001699F300D789FEB
:10034000300D1124309389002093880008950E9475
:10035000E8000E943D010E9448010E9401010E94A4
:1003600008010E946A018091000190E00E948A01C8
:10037000FFCFAA1BBB1B51E107C0AA1FBB1FA617BB
:10038000B70710F0A61BB70B881F991F5A95A9F73E
:1003900080959095BC01CD010895BB274A3031F47A
:1003A000992322F4BDE2909581959F4F0C94D90139
:1003B000BB27FB015527AA27880F991FAA1FA4173F
:1003C00010F0A41B83955051B9F7A05DAA3308F033
:1003D000A95DA193009779F7B111B1931192CB0167
:1003E0000C9422020F931F93CF93DF93182F092FA2
:1003F000EB018B8181FD09C01FEF0FEF812F902F43
:10040000DF91CF911F910F91089582FF14C02E812B
:100410003F818C819D81281739073CF4E881F9815F
:10042000CF0101969983888310838E819F810196E5
:100430009F838E83E3CFE885F985812F0995892BEA
:10044000A1F3DACFDC01FC01672F71917723E1F78B
:10045000329704C07C916D9370836291AE17BF0791
:08046000C8F30895F894FFCFE2
:10046800425354415254200A0D0053544F50200A0D
:100478000D006E6F7420636F6E6E65637465642023
:100488000A0D00436F6E6E65637465642C206E6F91
:1004980074206368617267696E67200A0D00436F94
:1004A8006E6E65637465642C206368617267696E3B
:1004B80067207265717565737465640A0D00436F12
:1004C8006E6E65637465642C206368617267696E1B
:1004D8006720776974682076656E74207265717517
:1004E8006573746564200A0D00536F6D65746869DF
:1004F8006E67277320676F6E652077726F6E670A65
:020508000D00E4
:00000001FF
