:1000000010E0A0E6B0E0EAEDF2E003C0C89531965A
:100010000D92A637B107D1F720E0A6E7B0E001C006
:100020001D92AC37B207E1F7219A8FEF9FEF9093C3
:10003000870080938600E0E8F0E08081806A80831A
:10004000808182608083E1E8F0E080818861808344
:10005000808181608083EFE6F0E080818260808330
:10006000789408958F938FB78F93EF93FF93EAE778
:10007000F0E0808180648083FF91EF918F918FBF4A
:100080008F9118958F939F9380917800909179002C
:1000900090937B0080937A0081E0809376009F911B
:1000A0008F9118959C018536910514F024E630E077
:1000B0004FE852E0249FC001259F900D349F900D82
:1000C0001124909389008093880008951092C000B5
:1000D00028E12093C10026E02093C2009C0150E05B
:1000E00040E060E472E48FE090E00E940F01215054
:1000F00031093093C5002093C40008958091C00059
:1001000087FF03C08091C600089580E00895DC0158
:1001100090E080E0FD0101900020E9F73197EA1BB3
:10012000FB0B8E179F0708F008952091C00025FF54
:10013000FCCFFD01E80FF91F20812093C600019636
:10014000E9CFDC0190E080E0FD0101900020E9F7BB
:100150003197EA1BFB0B8E179F0720F08AE08093F4
:10016000C60008952091C00025FFFCCFFD01E80FD7
:10017000F91F20812093C6000196E6CFECE7F0E05E
:100180008081806480838081807F8083EAE7F0E0E3
:1001900080818260808380818068808380818860A4
:1001A0008083089580917A00806480937A008091A2
:1001B0007A0084FDFCCF80917800909179000895B9
:1001C00000D000D0CDB7DEB70E94BE0080E895E237
:1001D0000E94660080E690E00E94A1000E94140048
:1001E0008CE690E00E94A10087EF9FE39093890046
:1001F00080938800809176008130F1F74AE0BE015B
:100200006F5F7F4F80917A0090917B000E94360152
:10021000CE0101960E94870010927600EBCFA1E2FA
:100220001A2EAA1BBB1BEA2FFB2F0DC0AA1FBB1F38
:10023000EE1FFF1FA217B307E407F50720F0A21B6C
:10024000B30BE40BF50B661F771F881F991F1A94D9
:1002500069F76095709580959095262F372F482FD8
:10026000592F6A2F7B2F8E2F9F2F0895BB274A303F
:1002700031F4992322F4BDE2909581959F4F01C0FE
:10028000BB27E62FF72F5527AA27880F991FAA1FEC
:10029000A41710F0A41B83955051B9F7A05DAA33A1
:1002A00008F0A95DA193009779F7B111B19311926C
:1002B000862F972F00C0A82FB92FE82FF92F672F6F
:1002C00071917723E1F7329704C07C916D9370832D
:0A02D0006291AE17BF07C8F308954E
:1002DA0053455249414C20494E49540050574D20EC
:0602EA00494E49540000DA
:00000001FF
