:100000000C9434000C9451000C9451000C94510049
:100010000C9453000C9451000C9451000C9451001A
:100020000C9451000C9451000C9451000C9451000C
:100030000C9451000C9451000C9451000C945100FC
:100040000C9451000C9451000C9451000C945100EC
:100050000C9451000C9463000C9451000C945100CA
:100060000C9451000C94510011241FBECFEFD8E026
:10007000DEBFCDBF11E0A0E0B1E0E8E6F3E002C0F2
:1000800005900D92A430B107D9F722E0A4E0B1E0C9
:1000900001C01D92AF30B207E1F70E9411010C942C
:1000A000B2010C9400008F938FB78F93EF93FF935F
:1000B000EAE7F0E0808180648083FF91EF918F9187
:1000C0008FBF8F9118958F939F9380917800909117
:1000D000790090930701809306019F918F91189565
:1000E000E1ECF0E08081806880837894089510923C
:1000F000C00088E18093C10086E08093C20087E65B
:1001000090E09093C5008093C4008FED9BEA019727
:10011000F1F700C000000895CF93DF93EC018991BF
:10012000811103C0DF91CF9108959091C00095FF98
:10013000FCCF60910B0270910C02082E000C990B01
:100140000E9472018093C600EACF8091C00087FFB1
:10015000FCCF8091C6000895E8E6F0E080818260DF
:100160008083ECE6F0E08081816080830895ECE795
:10017000F0E08081806480838081807F8083EAE7F3
:10018000F0E08081866080838081806880838081C8
:1001900088608083089580917A00806480937A00DB
:1001A00080917A0084FDFCCF809178009091790055
:1001B000089584B1826284B98FEB9EE390938700A7
:1001C00080938600E0E8F0E08081806A808380810F
:1001D00082608083E1E8F0E08081886180838081B3
:1001E0008160808378940895382F292F809186002C
:1001F0009091870064E670E00E943901832F922F6E
:100200008536910514F084E690E0689F9001699F1F
:10021000300D789F300D1124309389002093880091
:1002200008950E94AC000E94B7000E9470000E94D6
:1002300077000E94D9008091000190E00E94F400B4
:1002400080910601909107019C013695279536957E
:100250002795209304014AE068E071E00E944D0177
:1002600088E091E00E948C0081E091E00E948C0087
:10027000E7CFAA1BBB1B51E107C0AA1FBB1FA617D4
:10028000B70710F0A61BB70B881F991F5A95A9F73F
:1002900080959095BC01CD010895BB274A3031F47B
:1002A000992322F4BDE2909581959F4F0C945901BA
:1002B000BB27FB015527AA27880F991FAA1FA41740
:1002C00010F0A41B83955051B9F7A05DAA3308F034
:1002D000A95DA193009779F7B111B1931192CB0168
:1002E0000C94A2010F931F93CF93DF93182F092F24
:1002F000EB018B8181FD09C01FEF0FEF812F902F44
:10030000DF91CF911F910F91089582FF14C02E812C
:100310003F818C819D81281739073CF4E881F98160
:10032000CF0101969983888310838E819F810196E6
:100330009F838E83E3CFE885F985812F0995892BEB
:10034000A1F3DACFDC01FC01672F71917723E1F78C
:10035000329704C07C916D9370836291AE17BF0792
:08036000C8F30895F894FFCFE3
:04036800140A0D0066
:00000001FF
