:100000000C9434000C9451000C9451000C94510049
:100010000C9453000C9451000C9451000C9451001A
:100020000C9451000C9451000C9451000C9451000C
:100030000C9451000C9451000C9451000C945100FC
:100040000C9451000C9451000C9451000C945100EC
:100050000C9451000C9463000C9451000C945100CA
:100060000C9451000C94510011241FBECFEFD8E026
:10007000DEBFCDBF11E0A0E0B1E0E6E2F3E002C0F8
:1000800005900D92A230B107D9F722E0A2E0B1E0CD
:1000900001C01D92AD30B207E1F70E9408010C9437
:1000A00091010C9400008F938FB78F93EF93FF9380
:1000B000EAE7F0E0808180648083FF91EF918F9187
:1000C0008FBF8F9118958F939F9380917800909117
:1000D000790090930501809304019F918F91189569
:1000E000E1ECF0E08081806880837894089510923C
:1000F000C00088E18093C10086E08093C20087E65B
:1001000090E09093C5008093C4008FED9BEA019727
:10011000F1F700C000000895CF93DF93EC018991BF
:10012000811103C0DF91CF9108959091C00095FF98
:10013000FCCF6091090270910A02082E000C990B05
:100140000E9451018093C600EACF8091C00087FFD2
:10015000FCCF8091C6000895E8E6F0E080818260DF
:100160008083ECE6F0E08081816080830895ECE795
:10017000F0E08081806480838081807F8083EAE7F3
:10018000F0E08081866080838081806880838081C8
:1001900088608083089580917A00806480937A00DB
:1001A00080917A0084FDFCCF809178009091790055
:1001B000089584B1826284B98FEF9FEF9093870096
:1001C00080938600E0E8F0E08081806A808380810F
:1001D00082608083E1E8F0E08081886180838081B3
:1001E00081608083789408959C018536910514F090
:1001F00024E630E04FE852E0249FC001259F900D97
:10020000349F900D11249093890080938800089565
:100210000E94AC000E94B7000E9470000E9477000C
:100220000E94D9008091000190E00E94F40080912A
:100230000401909105019C013695279536952795E7
:10024000209302014AE066E071E00E942C0186E002
:1002500091E00E948C00EBCFBB274A3031F4992308
:1002600022F4BDE2909581959F4F0C943801BB27F5
:10027000FB015527AA27880F991FAA1FA41710F062
:10028000A41B83955051B9F7A05DAA3308F0A95D6E
:10029000A193009779F7B111B1931192CB010C940E
:1002A00081010F931F93CF93DF93182F092FEB0139
:1002B0008B8181FD09C01FEF0FEF812F902FDF9100
:1002C000CF911F910F91089582FF14C02E813F811D
:1002D0008C819D81281739073CF4E881F981CF0191
:1002E00001969983888310838E819F8101969F83D5
:1002F0008E83E3CFE885F985812F0995892BA1F3BA
:10030000DACFDC01FC01672F71917723E1F7329797
:1003100004C07C916D9370836291AE17BF07C8F3E0
:060320000895F894FFCFE0
:020326000A00CB
:00000001FF
