:100000000C9434000C9451000C9451000C94510049
:100010000C9451000C9451000C9451000C9451001C
:100020000C9451000C9451000C9451000C9451000C
:100030000C9451000C9451000C9451000C945100FC
:100040000C9451000C9451000C9451000C945100EC
:100050000C9451000C9451000C9451000C945100DC
:100060000C9451000C94510011241FBECFEFD8E026
:10007000DEBFCDBF11E0A0E0B1E0E4EFF1E002C0EF
:1000800005900D92A631B107D9F711E0A6E1B1E0D4
:1000900001C01D92A931B107E1F70E94AC000C9498
:1000A000F8000C94000084B1866084B98FEF9FEF54
:1000B0009093870080938600E0E8F0E08081806A7A
:1000C0008083808182608083E1E8F0E080818861C4
:1000D000808380818160808308951092C00028E130
:1000E0002093C10026E02093C2009C0140E050E034
:1000F00060E472E48FE090E00E94D600215030402E
:100100003093C5002093C40008958091C00087FDFE
:1001100002C080E008958091C6000895AC01DC0122
:100120000D900020E9F71197A81BB90B20E030E0F3
:100130000CC08091C00085FFFCCFFA01E20FF31FD5
:1001400080818093C6002F5F3F4F2A173B0788F3BB
:100150008AE08093C600089580E895E20E946D00D1
:1001600080E091E00E948E000E9453008CE091E0BC
:100170000E948E00FFCFAC01DC010D900020E9F75A
:100180001197A81BB90B20E030E00CC08091C00093
:1001900085FFFCCFFA01E20FF31F80818093C60038
:1001A0002F5F3F4F2A173B0788F30895A1E21A2ECD
:1001B000AA1BBB1BFD010DC0AA1FBB1FEE1FFF1F0B
:1001C000A217B307E407F50720F0A21BB30BE40B5B
:1001D000F50B661F771F881F991F1A9469F76095A2
:1001E0007095809590959B01AC01BD01CF0108955C
:0401F000F894FFCFB1
:1001F40053455249414C20494E49540050574D20D3
:06020400494E49540000C0
:00000001FF
