:100000000C9434000C9451000C9451000C94510049
:100010000C9451000C9451000C9451000C9451001C
:100020000C9451000C9451000C9451000C947100EC
:100030000C9451000C9451000C9451000C945100FC
:100040000C9451000C9451000C9451000C945100EC
:100050000C9451000C9481000C9451000C945100AC
:100060000C9451000C94510011241FBECFEFD8E026
:10007000DEBFCDBF11E0A0E0B1E0EEE4F3E002C0EE
:1000800005900D92A631B107D9F721E0A6E1B1E0C4
:1000900001C01D92AC31B207E1F70E941F010C9420
:1000A000A5010C940000219A8FEF9FEF9093870099
:1000B00080938600E0E8F0E08081806A8083808120
:1000C00082608083E1E8F0E08081886180838081C4
:1000D00081608083EFE6F0E08081826080837894A5
:1000E00008958F938FB78F93EF93FF93EAE7F0E034
:1000F000808180648083FF91EF918F918FBF8F917A
:1001000018958F939F9380917800909179009093A8
:100110001B0180931A0181E0809316019F918F91BA
:1001200018959C018536910514F024E630E04FE8DF
:1001300052E0249FC001259F900D349F900D112403
:10014000909389008093880008951092C00028E160
:100150002093C10026E02093C2009C0150E040E0C3
:1001600060E472E48FE090E00E944E01215031097A
:100170003093C5002093C40008958091C00087FF8C
:1001800003C08091C600089580E00895DC0190E0EE
:1001900080E0FD0101900020E9F73197EA1BFB0B9D
:1001A0008E179F0708F008952091C00025FFFCCF0F
:1001B000FD01E80FF91F20812093C6000196E9CFC9
:1001C000DC0190E080E0FD0101900020E9F731972B
:1001D000EA1BFB0B8E179F0720F08AE08093C60076
:1001E00008952091C00025FFFCCFFD01E80FF91F05
:1001F00020812093C6000196E6CFECE7F0E08081F5
:10020000806480838081807F8083EAE7F0E0808162
:100210008260808380818068808380818860808321
:10022000089580917A00806480937A0080917A00AA
:1002300084FDFCCF8091780090917900089500D0E2
:1002400000D0CDB7DEB70E94FD0080E895E20E94A5
:10025000A50080E091E00E94E0000E9453008CE045
:1002600091E00E94E00087EF9FE3909389008093E4
:100270008800809116018130F1F74AE0BE016F5F7E
:100280007F4F80911A0190911B010E947001CE0155
:1002900001960E94C60010921601EBCFA1E21A2E21
:1002A000AA1BBB1BFD010DC0AA1FBB1FEE1FFF1F1A
:1002B000A217B307E407F50720F0A21BB30BE40B6A
:1002C000F50B661F771F881F991F1A9469F76095B1
:1002D0007095809590959B01AC01BD01CF0108956B
:1002E000BB274A3031F4992322F4BDE290958195E1
:1002F0009F4F0C947C01BB27FB015527AA27880F31
:10030000991FAA1FA41710F0A41B83955051B9F789
:10031000A05DAA3308F0A95DA193009779F7B11108
:10032000B1931192CB010C949501DC01FC01672F74
:1003300071917723E1F7329704C07C916D937083BC
:0E0340006291AE17BF07C8F30895F894FFCF7F
:10034E0053455249414C20494E49540050574D2077
:06035E00494E4954000065
:00000001FF
